:020000040800F2
:10000000C8270120D5030008857500088D50000819
:10001000FD680008FD1F0008858900080000000039
:1000200000000000000000000000000015030008B0
:100030000D26000800000000710300087D7F000805
:10004000EF030008EF030008EF030008EF030008C8
:10005000EF030008EF030008EF030008EF030008B8
:10006000EF030008EF030008EF030008F124000885
:10007000EF030008FD240008EF030008092500082D
:100080001525000821250008EF030008EF030008EC
:1000900001200008EF030008EF030008EF03000849
:1000A000EF030008EF030008EF030008EF03000868
:1000B000398000084580000851800008EF030008DF
:1000C000EF0300089D50000891500008EF0300085E
:1000D000EF030008558900086D890008EF03000848
:1000E000EF030008EF030008EF030008EF03000828
:1000F000EF030008EF030008EF0300082D250008B8
:10010000EF030008EF03000875800008EF03000804
:100110000585000811850008EF030008EF030008BB
:10012000EF0300083925000845250008EF03000803
:10013000EF030008EF030008EF030008EF030008D7
:10014000EF030008EF030008EF030008EF030008C7
:10015000EF030008512500085D2500087989000893
:10016000EF030008EF030008EF030008EF030008A7
:10017000EF030008EF030008EF0300080000000091
:10018000EF030008EF03000800F002F800F0B2F8F7
:100190000AA090E8000C82448344AAF10107DA45E2
:1001A00001D100F0A7F8AFF2090EBAE80F0013F082
:1001B000010F18BFFB1A43F001031847E8DE0000E7
:1001C00008DF00000A444FF0000C10F8013B13F068
:1001D000070408BF10F8014B1D1108BF10F8015BA0
:1001E000641E05D010F8016B641E01F8016BF9D193
:1001F00013F0080F1EBF10F8014BAD1C0C1B09D1EA
:100200006D1E58BF01F801CBFAD505E014F8016B5B
:1002100001F8016B6D1EF9D59142D6D370470000ED
:100220000023002400250026103A28BF78C1FBD8FF
:10023000520728BF30C148BF0B6070476E2900F0DD
:10024000B183702900F01B8566290DF010846529A3
:100250000DF00D8467290DF00A8461290DF00984E1
:1002600003681B0A28BF41F08001692900F05E8302
:10027000642900F05B83752900F058836F2900F032
:10028000A884782900F0E784E92900F04384E42970
:1002900000F04084F52900F03D84EF2900F0A584AA
:1002A000F82900F0E6840368DB0928BF41F08001EB
:1002B000632900F0B283732900F0B783E32901F0CA
:1002C0007381F32901F07881002070471FB50DF08C
:1002D000C9FB01F0C7F90400002000210CF0BEFEAC
:1002E000401C6060002000210CF0A2FEE0601FBDF9
:1002F00010B510BD01F088F91146FFF7E7FF09F0CE
:10030000A5F801F065FA03B4FFF7F2FF03BC08F0AB
:1003100075FD00002C4B19680868B0E8F04F80F3B9
:100320000988BFF36F8F4FF0000080F3118870478A
:100330000000000008480068006880F308884FF05B
:10034000000080F3148862B661B6BFF34F8FBFF32D
:100350006F8F00DF00BF00BF08ED00E0DFF80C008A
:10036000016841F470010160704700BF88ED00E052
:10037000EFF30980BFF36F8F134B1A681EF0100F55
:1003800008BF20ED108A20E9F04F106009B44FF04B
:10039000500080F31188BFF34F8FBFF36F8F0BF0C6
:1003A000A5FF4FF0000080F3118809BC19680868A8
:1003B000B0E8F04F1EF0100F08BFB0EC108A80F3C9
:1003C0000988BFF36F8F70476C000020EFF3058042
:1003D000704700000948804709480047FEE7FEE7EC
:1003E000FEE7FEE7FEE7FEE7FEE7FEE7FEE7FEE7E5
:1003F00004480549054A064B70470000298000085B
:1004000089010008C8210120C8270120C823012034
:10041000C8230120704753EA020C00F069802DE9DF
:10042000F04B4FF00006002B1FBFB3FA83F503FA21
:1004300005F424FA05F65E4012BF1643B2FA82F5BF
:1004400002FA05F4C5F120051EBF22FA05FC44EAB4
:100450000C04203556EA044C4FEA144418BF641CBF
:100460004FF000084FF00009904271EB030C39D3B4
:10047000002919BFB1FA81F701FA07F6B0FA80F73F
:1004800000FA07F6C7F120071EBF20FA07FC46EA6C
:100490000C062037B6FBF4FCA7EB0507103F07F06E
:1004A0001F0BCBF120060CFA0BFB2CFA06F644BF0F
:1004B000B3460026202FA4BF5E464FF0000B5BEA38
:1004C000060C08BF4FF0010B19EB0B09ABFB027CCC
:1004D00048EB0608C01B06FB02CC0BFB03CC71EB00
:1004E0000C01C1E70B46024641464846BDE8F08B89
:1004F00013B54FF000004FF00001AFF30080BDE8EE
:100500001C4070471CB50C46064B7B446946009066
:10051000204600F060FA04460020694600F06EFABA
:1005200020461CBDEF0400000FB4044910B503AA17
:10053000029800F07FFA10BC5DF814FBF40D002067
:1005400070B50C460546012A05D02878800600D5EE
:10055000EA69002302E0012305E05B1C934202D21A
:10056000E05C0028F9D1A869E618C01AA861286AD9
:1005700018442862284600F0A0F904E0D5E90121DA
:1005800014F8010B9047B442F8D3284600F0ABF9B9
:1005900070BD00002DE9F05F894604464FF0000A67
:1005A000DFF874B1FB44C0F820A02046E16888471A
:1005B000002874D0252806D0D4E901219047206A6C
:1005C000401C2062F1E700265F462046E16888472C
:1005D0002028054607DB312D05D2781910F8200CAC
:1005E00008B10643F1E7B00701D526F00406C4F8C8
:1005F0001CA00027C4F818A02A2D09D0284608F00E
:10060000DFFA38B304EB8708303DC8F8185019E01A
:1006100059F8041B204604EB87029161E168884782
:10062000012F054618D1E069002820DA26F02006BF
:100630001DE0D8F8180000EB800005EB40003038D2
:10064000C8F818002046E1688847054608F0B8FA5F
:100650000028EED1012F0AD02E2D08D12046E168C6
:1006600088477F1C0546022F46F02006C4DBA069A0
:10067000002803DA404246F00106A061F00701D0ED
:1006800026F010066C2D0BD0682D09D04C2D39D0DA
:100690006A2D35D0742D35D07A2D33D016E038E060
:1006A000E1682F4620468847B842054609D16C2F9D
:1006B00026D04FF48060E16806432046884705460F
:1006C00004E06C2F1AD04FF4807006430DB3A5F1EF
:1006D0004100192802D8203546F400664A462946CA
:1006E000204626604E46FFF7A9FD80B101280BD0B9
:1006F000F61D26F0070000F1080956E74020E4E760
:100700008020D8E70020D6E706F104094DE7284607
:1007100052E7206ABDE8F09F64D8000040EA010378
:1007200010B59B070FD1042A0DD310C808C9121F9A
:100730009C42F8D020BA19BA884201D9012010BDD4
:100740004FF0FF3010BD1AB1D30703D0521C07E0A1
:10075000002010BD10F8013B11F8014B1B1B07D105
:1007600010F8013B11F8014B1B1B01D1921EF1D176
:10077000184610BD032A40F2308010F0030C00F040
:10078000158011F8013BBCF1020F624498BF11F8CB
:1007900001CB00F8013B38BF11F8013BA2F1040284
:1007A00098BF00F801CB38BF00F8013B11F00303FC
:1007B00000F07082083AC0F0088051F8043B083A13
:1007C00051F804CBA0E80810F5E7121D5CBF51F802
:1007D000043B40F8043BAFF30080D20724BF11F87C
:1007E000013B11F801CB48BF11F8012B24BF00F8E1
:1007F000013B00F801CB48BF00F8012B704702F025
:10080000FF0343EA032242EA024200F077BA4FF0C4
:10081000000200B5134694469646203922BFA0E850
:100820000C50A0E80C50B1F12001BFF4F7AF09075C
:1008300028BFA0E80C5048BF0CC05DF804EB89004D
:1008400028BF40F8042B08BF704748BF20F8022B90
:1008500011F0804F18BF00F8012B704710B5044607
:1008600010F0030F08BF11F0030F40F015804FF098
:10087000013E121FC0F20E8051F8043BA3EB0E0C98
:100880002CEA030C1CEACE1C08BF40F8043BF0D055
:10089000A1F1040102F10402521E08DB11F8013B30
:1008A000002B00F8013BF7D1114600F025FA204655
:1008B00010BD704770477047704770B50446856932
:1008C0000068C10601D5302600E02026C00707D009
:1008D00070BDD4E9012130469047206A401C206257
:1008E0006D1EF6D570BD70B5044685690078C007E9
:1008F00007D170BDD4E9012120209047206A401C17
:1009000020626D1EF6D570BD09684A0501D540B25A
:100910007047C905FCD500B2704709684A0501D582
:10092000C0B27047C905FCD580B270472DE9F041CF
:100930000646002410687529314616A510D0FFF729
:10094000E3FF002802DA404213A507E031688A0776
:1009500001D512A502E0490704D511A5012401E043
:10096000FFF7DBFF00210A2206F1240709E0B0FBB4
:10097000F2FCB0FBF2F302FB1C0030307854184656
:10098000491C0028F3D123462A463046BDE8F041F1
:1009900000F019BA000000002D0000002B0000003C
:1009A0002000000011680268006A530501D5087034
:1009B0000AE0D30501D5088006E0130603D5C21767
:1009C000C1E9000200E008600120704701694A1C8B
:1009D00002610878704700B58FB0CDE90131002180
:1009E000059105497944CDE9031011466846FFF7A2
:1009F000D1FD0FB000BD0000E5FFFFFF0A6802F85F
:100A0000010B0A60704710B5436913B1AFF3008062
:100A100001E0FFF795FD012010BD127800F12401DF
:100A20000A7000224A700122EDE711684FF0FF3290
:100A3000E9E70000074B70B50D467B44FFF7CBFF9D
:100A40000446284600F0BCFD10B14FF0FF3070BDE9
:100A5000204670BDAB8700002DE9FF5F15468A4632
:100A60000446DFF8AC80F8440027D8E900103E4681
:100A7000CDE9001010E03AF816106A4602A800F01E
:100A8000A3FD411C07D02178890603D5E2693918F6
:100A900091420DD80744761C2078800602D5E06983
:100AA000B84205DDAE42E6DB3AF816000028E2D196
:100AB000A069C01BA0612046FFF7FFFED8E9001027
:100AC000CDE90010002017E03AF818106A4602A895
:100AD00000F07AFDB0F1FF3F81460BD000250DF10B
:100AE000080B05E0D4E901211BF8050090476D1CB7
:100AF0004D45F7D308F10100B0428046E4DB206A9F
:100B0000384420622046FFF7EEFEBDE8FF9F00005C
:100B1000B6D300002DE9F0418046D21D22F0070235
:100B20000025D2E90002F52915A614D0011E72F1A4
:100B3000000106DA0023D0EB030063EB020211A6EA
:100B400008E0D8F800108B0701D50FA602E049078E
:100B500001D50EA601251146002408F1240704E062
:100B600000F0ECF830323A55641C50EA0102F7D13B
:100B70002B46324621464046BDE8F04100F023B9FD
:100B8000000000002D0000002B00000020000000ED
:100B900030B4002100F1240408E002F00705D20877
:100BA000303542EA4372DB086554491C52EA0305BA
:100BB000F3D10468002310A2250707D5A40600D4AA
:100BC00021B1C46901230DA2641EC46130BC00F0D0
:100BD000FAB810B5044621461068FFF79EFE02469B
:100BE0002046BDE810400023D2E7D21D22F00701C5
:100BF000D1E90023CCE70000000000003000000035
:100C0000F0B40D460188090502D5214C7C4402E070
:100C10001F4C7C440E34002100F1240608E002F051
:100C20000F071209E75D42EA03721B097754491C5A
:100C300052EA0307F3D102780023120704D5702D7E
:100C400006D009B1022311342246F0BC00F0BBB833
:100C500001231034F8E770B504460D4621461068AC
:100C6000FFF75BFE024629462046BDE870400023A0
:100C7000C6E7D21D22F00703D3E90023C0E70368CB
:100C8000126843F0200303600823C3610023B7E721
:100C900018D2000010B5203AC0F00B80B1E818500F
:100CA000203AA0E81850B1E81850A0E81850BFF456
:100CB000F5AF5FEA027C24BFB1E81850A0E81850F5
:100CC00044BF18C918C0BDE810405FEA827C24BF49
:100CD00051F8043B40F8043B08BF7047D20728BFD7
:100CE00031F8023B48BF11F8012B28BF20F8023B26
:100CF00048BF00F8012B70474FF000020429C0F0F4
:100D0000128010F0030C3FF484ADCCF1040CBCF164
:100D1000020F18BF00F8012BA8BF20F8022BA1EB8F
:100D20000C01FFF776BD5FEAC17C24BF00F8012B00
:100D300000F8012B48BF00F8012B704730B5B0F127
:100D40000A024FEA900E71F100034EEA817EB0EB89
:100D50000E0061EB91014FEA101E4EEA017E10EB8E
:100D60000E0041EB11114FEA102E4EEA016E10EB0E
:100D70000E0041EB11214FEA104E4EEA014E10EBEE
:100D80000E0041EB1141401841F100014FEAD00043
:100D900040EA41704FEAD10110EB80054FEA81042F
:100DA00044EA907444EB01046D1944EB0404521BB3
:100DB000A3414FF0000348BF0A3200D530BD401CAC
:100DC00041F1000130BD2DE9F0470D4699469246AC
:100DD000044600F124080168880604D5E06921F082
:100DE0001001216000E00120A84201DD471B00E066
:100DF0000027A1697A1902EB0900081AA06120787E
:100E0000C00602D42046FFF758FD002608E0D4E9CA
:100E100001211AF806009047206A401C761C2062C7
:100E20004E45F4DB2078C0060AD52046FFF745FD85
:100E300006E0D4E9012130209047206A401C20625E
:100E4000381EA7F10107F4DC07E0D4E9012118F806
:100E500005009047206A401C2062281EA5F101056C
:100E6000F3DC2046FFF73FFD2078000602D5022084
:100E7000BDE8F0870120FBE770472DE9FF4F0C46E6
:100E80001E464FF0FF378BB0D2E90001DDF86080DD
:100E90000A908A46C1F30A5505B93D460021084625
:100EA0004FF00000BAF1000F00F4400005DA00EB4B
:100EB00080004FF4400101EA50004FEA9059B9F127
:100EC000010F00DDB9460A9850EA4A000ED044F6F8
:100ED0001050A5F2FF3545432F14B8F1000F1ED076
:100EE0007542291E1EDDC9F100021CE0B8F1010F98
:100EF0004FF0000001D0302103E0F24305E021541F
:100F0000401CB042FBDB30460022002121540B99EB
:100F1000C1F80880C1E900200FB0BDE8F08FBD1B0B
:100F20006D1CDEE74A4600DA694206A800F0DEFBE7
:100F300006AB93E8070003AB83E8070050460A9925
:100F400000F094FC8DE80700A0F500501F380090D9
:100F50000398002D0ADD42F21F014A46084400238F
:100F600003A90390684600F0FDFE09E0A0F50050DB
:100F70004A461F38002303A90390684600F007FF84
:100F80008DE807000004000C03D04FF0FF3041084B
:100F900000E01046B8F1000F03D000220092154681
:100FA0001EE0751E05D4FFF7C9FE303262556D1E76
:100FB000F9D5B3460122084302D000227F1C04E089
:100FC0002078302801D100227F1E002A099784D082
:100FD0001DE0112D07DAFFF7B1FE303262556D1CAE
:100FE00050EA0102F5D1084302D00098C8B10EE0E2
:100FF0000021681E05E0235C625C63542254401E9D
:10100000491C8142F7DBAB46A81B401E099000201B
:1010100004F80B000B98099AC0F80880C0E9002B6F
:101020007AE711264FF0000857E72DE9F04F884680
:101030000446D21D22F0070191B0D1E90001CDE9AB
:101040000A0107F0B8FC02460B98C00F01D02D2012
:1010500007E02068810701D52B2002E0202101EA6A
:10106000C000032A099001D0072A05DB0346414648
:10107000204600F0FBFA0BE12078800601D5E069FC
:1010800000E00620B8F1650F814606D0B8F1660F82
:1010900018D0B8F1670F70D131E00020B9F1110F0D
:1010A000009001DB112301E009F101030AAA01A963
:1010B0000CA8FFF7E2FEDDE90C70002609F101053E
:1010C000834647E001204B4600904FF000470AAAB4
:1010D00001A90CA8FFF7D1FEDDE90DB00C995D4622
:1010E000002610B909F101000D18B9EB050003D471
:1010F000C0F1FF3609F10105A5EB09002BE0B9F1BC
:10110000010F01DA4FF001090020B9F1110F009031
:10111000484601DD112300E003460AAA01A90CA8F4
:10112000FFF7ABFEDDE90C704D46002683462078C4
:1011300000070AD4AB4500DA5D4601A8012D04DDA5
:10114000411911F8011C302907D04F4502DA17F177
:10115000040F04DA012082460FE06D1EEEE7002F37
:1011600002DCED1B3E4403E0781CA84200DD7D1C40
:10117000B81B00F1010A4FF000472078000703D4A4
:10118000AA4501DB4FF0FF3A0021B7F1004F0DF106
:1011900043088DF8431024D002202B23002F01DABE
:1011A0007F422D230A21021EA0F1010000DC5FB165
:1011B00097FBF1FC97FBF1F201FB1C7C17460CF14D
:1011C000300C08F801CDEEE7A8F10100037021888A
:1011D000090501D5452100E06521A0F1010800F8CD
:1011E000011C09980FA9A1EB0807FF1D00B1012000
:1011F000411901EBEA70A1693844081A401EA06148
:101200002078C00602D42046FFF757FB099828B182
:10121000D4E901219047206A401C20622078C00652
:1012200022D52046FFF749FB1EE0002E04DBB34524
:1012300002DD01A8805D00E03020D4E90121904763
:10124000206A401C2062761CAAF101005FEA000AB5
:101250000AD100F007FAC0680168405CD4E90121B6
:101260009047206A401C2062281EA5F10105DCDCA5
:1012700007E0D4E9012118F8010B9047206A401CCF
:101280002062381EA7F10107F3DC2046FFF72BFB95
:10129000032011B041E600002DE9F04F04460D4651
:1012A000D21D22F0070089B0D0E9009748463946A0
:1012B00007F081FB0246F80F01D02D2307E02068DC
:1012C000810701D52B2302E0202101EAC0038DF81C
:1012D00020300BB1012000E00020032A824601D01B
:1012E000072A04DB2946204600F0C0F93FE12078B8
:1012F000800601D40D2500E0E569C7F30A560D2DDF
:1013000049DA00214FEA175B08464FF00000002F32
:1013100000F4400007DA00EB80004FF4400100EBDE
:10132000D07001EA60008115012901DD4FF0FF3125
:1013300000224FEA850CBCF1180F06D31346ACF11E
:1013400018004FF08052C24003E04FF4801323FA9C
:101350000CF30CF10C0CBCF1200F04D3ACF1200CFD
:1013600009FA0CF001E007FA0CF000294FF00048F0
:1013700001DD18B90FE00ED140450CD319EB02097D
:101380005F4121B9404502D19F4329EA0209BBEBE5
:10139000175F00D0761C2088000502D57B48784472
:1013A00002E07A487844193808AA302302F80A3053
:1013B000037C0AF10101002E0AF1020A53546A4625
:1013C00002DC4FF0300101E04FF031014FF0010835
:1013D0008DF8001002D0A6F2FF3603E059EA47016B
:1013E00000D06B4E002D02DC2178090704D54FF0A8
:1013F00002082E218DF80110C44600210BE0C7F32E
:1014000003433F01C35C491C6D1E02F808300529E7
:1014100008F1010801DA002DF1DC00210CE000EBFD
:101420001973491C1B786D1E082902F808304FEA11
:10143000091908F1010801DA002DF0DC21688B069A
:1014400002D516E0A8F10108E04505DD02EB08032E
:1014500013F8013C302BF5D0B8F1000F09DD02EB99
:10146000080313F8013C2E2B03D1090701D4A8F17E
:101470000108002D05DD3E2102F808106D1E08F15F
:101480000108407C002E02F8080008F1010804DA87
:101490002D20764202F8080002E02B2002F8080016
:1014A0000A214FF47A70864208F101080BDB96FBA3
:1014B000F0F3303302F8083096FBF0F308F101083E
:1014C00000FB136601E0642E0CDB642096FBF0F356
:1014D000303302F8083096FBF0F308F1010800FB06
:1014E000136601E00A2E06DB96FBF1F0303002F8BD
:1014F000080008F1010896FBF1F001FB10603030A4
:1015000002F80800A16908F1010808EB050202EBE6
:101510000A00081AA0612078C00602D42046FFF70E
:10152000CCF9216A08AE01EB0A00206204E0D4E99C
:10153000012116F8010B9047BAF1010AF7D2207881
:10154000C00602D52046FFF7B8F96E4609E016F846
:10155000010B3E280FD0D4E901219047206A401C9E
:101560002062B8F10108F2D22046FFF7BCF909B0B9
:101570000320BDE8F08F206A2844206203E0D4E90C
:101580000121302090476D1EEBD3F8E7C1CA00005F
:1015900002FCFFFF10B5436913B1AFF3008001E017
:1015A000FFF75AFA012010BD128800F1240182844D
:1015B0000022C2840122EDE711684FF0FF32E9E713
:1015C000007B00F08000704770B516460C4605465B
:1015D00000F040F8036893F80101012806D0FF2CC1
:1015E0000FD8185D68B101202C7070BDD3F80701C9
:1015F0003246214603F2071303442846BDE87040F3
:1016000018474FF0FF3070BD754600F0EBF8AE465E
:1016100005006946534620F00700854618B020B5FE
:10162000FEF7E6FEBDE820404FF000064FF0000751
:101630004FF000084FF0000B21F00701AC46ACE87A
:10164000C009ACE8C009ACE8C009ACE8C0098D46E7
:101650007047000010B500F005F8001D10BD00BF78
:10166000FDB9000000487047842101202DE9F041B8
:101670001F46044603260168072A01F4006004DBC4
:1016800008B116A505E016A503E008B115A500E010
:1016900015A521F010002060A069C01EA0610FB147
:1016A000401EA0612046FFF708F94FB1D4E901219F
:1016B00038469047206A401C2062C01C206206E029
:1016C000206AFAE7D4E9012115F8010B9047761E4C
:1016D000F8D22046FFF707F9BDE8F0814E414E00F1
:1016E0006E616E00494E4600696E66002DE9F04756
:1016F000814616468AB0354878440DC88DE80D00FD
:1017000032487844801C03AC0DC884E80D0041F6D3
:101710009B300844372190FBF1F290FBF1F5A5F1E5
:10172000800501FB12041B3C02D56442012000E04D
:101730000020DFF898A080460027FA44AAF1BE0AEC
:101740000EE0E0070AD03246684607EB4701012366
:101750000AEB810100F01BFB8DE8070064107F1C81
:10176000002CEED1194F7F44AE3F19E0E80715D0A9
:1017700007EB04100DF1180A90E80E008AE80E003D
:10178000C068F04201D1981908903246012306A999
:1017900003A800F0FCFA03AB83E807006D10641C9B
:1017A000002DE3D14FF0010332466946B8F1000F36
:1017B00003A802D000F0D6FA01E000F0E8FAC9E987
:1017C0000001C9F808200AB0BDE8F087F8C700009A
:1017D00010B50446AFF300802046BDE81040FEF788
:1017E00092BD000000487047642101204FF0013C89
:1017F00050F8042B51F8043B9A4221D1A2EB0C0380
:10180000934313EACC1317D150F8042B51F8043B3F
:101810009A4215D1A2EB0C03934313EACC130BD1DC
:1018200050F8042B51F8043B9A4209D1A2EB0C0367
:10183000934313EACC13DBD04FF00000704700BF96
:10184000D01A01BAB1FA81F101F0180122FA01F0BF
:10185000CB40C1F12001DBB2C0B2C01A2CFA01F3B7
:10186000D11A914311EAC311E6D170475FEA400CE7
:1018700008BF91F0000F4FEA8C234FEAC12243EAE0
:1018800051514FEA1C5018BF00F5F0404FEA3000AC
:1018900018BF41F000415FEA6C5C00F02980BCF1A8
:1018A000FF3F08BF40F080407047130C06BF120492
:1018B0004FF0100C4FF0000C130E04BF12020CF18D
:1018C000080C130F04BF12010CF1040C930F04BF9A
:1018D00092000CF1020CD30F04BF52000CF1010C6A
:1018E00011464FF00002A0F11F00A0EB0C00704762
:1018F00011F0004F08BF704731F000413FF4D5AF01
:101900000B0C06BF09044FF0100C4FF0000C0B0E2F
:1019100004BF09020CF1080C0B0F04BF09010CF104
:10192000040C8B0F04BF89000CF1020CCB0F04BF19
:1019300049000CF1010CCCF12003A0EB0C0022FAC1
:1019400003F302FA0CF241EA030100F101007047CF
:1019500020F07F4C80EA030023F07F47ACEB0703C5
:1019600003F57C5300F0004003F1FF032DE98049AB
:101970004FEA154B09B44FEA144325EA0B4E24EA0B
:1019800003480FF2042606EB132749083E785FEA66
:10199000320203FB0667C7F5000707FB06F64FEAAE
:1019A00054374FEAD64606F1020607FB066CCCF127
:1019B000005C4FEA1C472CEA074C07FB06F40CFBC3
:1019C00006F504EB15464FEA961634BF00204FF09B
:1019D00000404FEAD13706FB07FC4FEA1C4C0CFBDA
:1019E0000BF7D21B03FB0CF761EB07010CFB0EF7A7
:1019F000B0EB074072EB17420CFB08F734BFA2EBC9
:101A00000742B2EB074261EB17414FEA0C444FEA41
:101A1000910706FB07FC4FEA1C4C0CFB0BF7B0EBE5
:101A2000C74072EB573203FB0CF734BFA2EBC7423F
:101A3000B2EBC74261EB57310CFB0EF7B0EBC700BE
:101A400072EB57720CFB08F734BFA2EBC702B2EB84
:101A5000C70261EB5771039F4FEA816141EA92111E
:101A600004EBCC044FEAD1374FEA826206FB07FC55
:101A700042EA90124FEA80604FEA1C4C0CFB0BF7D5
:101A8000D21B03FB0CF761EB07010CFB0EF7B0EB6D
:101A9000074072EB17420CFB08F734BFA2EB07427A
:101AA000B2EB074261EB17414FEA8C554FEA9107C1
:101AB00004EB9C2406FB07FC4FEA1C4C0CFB0BF7C9
:101AC000B0EBC74072EB573203FB0CF734BFA2EB0D
:101AD000C742B2EBC74261EB57310CFB0EF7B0EBDC
:101AE000C70072EB57720CFB08F734BFA2EBC702BA
:101AF000B2EBC70261EB577115EB4C254FEA8161E0
:101B000041EA92114FEA82624FEAD13742EA9012DB
:101B100006FB07FC44F100044FEA80604FEA1C4CCE
:101B20000CFB0BF7D21B03FB0CF761EB07010CFB63
:101B30000EF7B0EB074072EB17420CFB08F734BF0F
:101B4000A2EB0742B2EB074261EB174115EB1C1504
:101B50004FEA813141EA92414FEA823242EA9042B1
:101B60004FEA80304FEA0C7644F1000448EA034320
:101B70004EEA0B484FF0000EB2EB080C71EB030776
:101B800024BF624639464EEB0E0E4FF0000B001894
:101B9000524149414BEB0B0BB2EB080C71EB0307C5
:101BA0007BF1000B24BF624639464EEB0E0E4FF020
:101BB000000B0018524149414BEB0B0BB2EB080CE8
:101BC00071EB03077BF1000B24BF624639464EEBF5
:101BD0000E0E51EA020718BF46F0010616EB0E760C
:101BE00055F1000254F1000103D5BDE88901BDE8BB
:101BF0000088BDE88901BDE80048B619524141EBB3
:101C00000101A3F10103704780807F7E7D7C7B7A98
:101C10007978777676757473727171706F6E6E6D98
:101C20006C6C6B6A6A69686867666665646463633E
:101C300062616160605F5F5E5E5D5D5C5C5B5B5AC4
:101C40005A59595858575756565555555454535331
:101C500052525251515050504F4F4F4E4E4D4D4D8C
:101C60004C4C4C4B4B4B4A4A4A49494948484847D7
:101C70004747474646464545454444444443434315
:101C80004342424242414141002B9C4630D47700BE
:101C90002BD01CB54FEA370703B44FF010004FF0BC
:101CA0001001BAF1000F06D0BCF1000FDCBF40F00C
:101CB000080040F008014FF000000FBCBDE81040E4
:101CC0000BF1010BBBF1010F08BF5FEA170722BF41
:101CD00012F1010211F101014FF0004143F1000343
:101CE00000F0004043EA00007047F9D35708D0E7FE
:101CF00046EA064613F1400F4FEA16461FDD13F180
:101D0000200FDFBF16430A46002120335B42BED0BE
:101D1000C3F1200746EA064602FA07F74FEA1646DD
:101D200046EA0706C3F1200722FA03F201FA07F791
:101D300021FA03F14FF0000342EA0702A7E746EA5F
:101D4000020646EA06464FEA164646EA0106BCBFC8
:101D500046EA0646360C4FF000034FF000024FF003
:101D6000000194E72DE9804C9A46934670B491E8BF
:101D7000380007C831EA400C48BF34EA430C03D5A9
:101D8000FFF7E6FDFFF780FFF0BCBDE8008C2DE912
:101D9000804C9A46934670B491E8380007C810F01A
:101DA000804F08BF13F0804F03D100F005F8FFF714
:101DB0006BFFF0BCBDE8008C20F07F4780EA030099
:101DC00023F07F4C07EB0C03A3F57C5300F000409D
:101DD000A3F1FE0392F0000F00F0B38095F0000F26
:101DE00000F077802DE901494FEA11404FEA14468F
:101DF00021EA004800FB06FC24EA064708FB06F639
:101E000007FB08F800FB07F718EB06484CEB164CED
:101E10004FEA124B18EB07484FEA15464CEB1740B8
:101E200022EA0B4E0BFB06FC25EA06470EFB06F6E4
:101E300007FB0EFE0BFB07F71EEB064E4CEB164C9A
:101E40004FF000061EEB074E4CEB174B18EB0B0840
:101E500040F1000018EB0E0B58EB000840F10000B9
:101E60008F1A4FF000013CBFC943661B14BFB5EB8E
:101E7000040C00213CBFC943F61B4FEA17444EEA4D
:101E80008E0E27EA04454FEA1C4704FB07622CEA42
:101E9000074C05FB07F70CFB05F604FB0CFC16EBE7
:101EA000074642EB174216EB0C4642EB1C421BEB7B
:101EB000060658EB0202414146EA9E0601D5BDE8FE
:101EC0000189B619524141EB0101A3F10103BDE8BB
:101ED00001894FEA14454FEA114724EA054621EAF1
:101EE000074C05FB07F406FB07F70CFB06F105FBA7
:101EF0000CFC11EB074144EB17444FEA124711EB7E
:101F00000C4144EB1C4422EA074C05FB07F206FB9C
:101F100007F70CFB06F605FB0CFC16EB074642EB3D
:101F2000174216EB0C4642EB1C456A1854F10001AF
:101F300048BF7047B619524141EB0101A3F10103BB
:101F4000704795F0000F37D04FEA11424FEA14471F
:101F500021EA024624EA074C02FB07F106FB07F7D9
:101F60000CFB06F402FB0CFC14EB074441EB17419D
:101F70004FEA154714EB0C4441EB1C4125EA074C92
:101F800002FB07F506FB07F70CFB06F602FB0CFC51
:101F900016EB074645EB174516EB0C4645EB1C4286
:101FA000121951F1000148BF7047B619524141EB77
:101FB0000101A3F1010370474FEA14454FEA1147AD
:101FC00024EA054621EA074C05FB07F106FB07F763
:101FD0000CFB06F24FF0000605FB0CFC12EB07426F
:101FE00041EB174112EB0C4251EB1C4148BF7047CB
:101FF000921841EB0101A3F101037047FEE70000D5
:10200000014800F0FCBC00005C0E00208021018033
:1020100000218170C1707047F0B500F5C060188074
:10202000002008249870DC700D0E0DD0D4B2012D64
:102030000DD0C2F30726022D0ED0C2F30747032DA1
:1020400010D0042D14D01AE06020187117E02F2250
:102050001A711C72587203E02B221A711C725E7284
:1020600098720BE027221A711C725E729F7205E053
:10207000232018711C725E729F72100ED8725971F3
:10208000080A9871080CD871F0BD00231380937072
:102090000223D37011715071704700002DE9F04F89
:1020A000B04D01226968012900D96A6041F203013B
:1020B00061F30F000424AB4E0021012364F31F6081
:1020C00008366D6807E000BF63F3174006EBC307EF
:1020D0005B1C47E902019D42F6D2A24F10377B6894
:1020E000012B00D97A6041F22606DFF878C266F348
:1020F0000F0064F31F600D4601230CF1180C7F687C
:1021000007E000BF0CEBC30863F3174048E9020582
:102110005B1C9F42F6D2934D20356B68012B00D893
:102120006A6066F30F008F4E012364F31F60283648
:102130006D6806E063F3174006EBC3075B1C47E9D5
:1021400002019D42F6D2DFF81C824FF00209A8F18D
:102150000C08B8F80030022B01D9A8F80090DFF87D
:1021600004B20123B8F800500BF1300B4FF4007E9D
:10217000A24619E003F5905464F30F0062F31F6068
:102180000BEB431461F31740C4E9000E6AF31F60C0
:102190005FF0010666F3174004EBC607761CC7E93B
:1021A0000001032EF6DD5B1CAB42E3DDB8F8023024
:1021B000022B01D9A8F80290B8F80260DFF8A4B1A8
:1021C00000238E460BF1700B5146761E1CE000BFBB
:1021D00003F5945464F30F0062F31F6075460BEB34
:1021E000431765F317400324C7E9000461F31F6038
:1021F0005FF0010407EBC40C64F31740CCE9000561
:10220000641C032CF6DD5B1CB342E1DDB8F804303E
:10221000042B01D9A8F80410B8F804600025B246D0
:10222000C3467446761E19E005F5A053DFF834C1A5
:1022300063F30F000CF1B00CC5EBC50861F31F6030
:10224000274601230CEBC80808EBC30C63F31740C7
:10225000CCE900075B1C062BF6DD6D1CB542E3DD07
:10226000BBF806505B46042D00D9D980574600259F
:10227000DFF8F4A07F1E1BE005F5B05363F30F00F9
:1022800005EB850C62F31F600AEBCC0C64F317407E
:10229000CCE90004264661F31F6001230CEBC30860
:1022A00063F31740C8E900065B1C042BF6DD6D1CC8
:1022B000BD42E1DDBBF808305D46022B01D9A5F82F
:1022C0000890DA46BBF80880DFF89CB000230BF1D9
:1022D000A00BA146A8F1010516E000BF03F5C0540C
:1022E00064F30F00C3EBC30761F31F604E46012484
:1022F0000BEBC70707EBC40C64F31740CCE90006EF
:10230000641C062CF6DD5B1CAB42E7DDBAF80A4024
:10231000042C01D9AAF80A1046460023DFF84C80A5
:10232000761E1BE003F5D05464F30F0003EB830427
:1023300008EBC40762F31F604D4665F31740C7E919
:10234000000961F31F60012407EBC40C64F317401C
:10235000CCE90005641C042CF6DD5B1CB342E1DD16
:10236000BDE8F08F400A0020D00B0020500D002067
:1023700000B58BB0002001210190029008910590DA
:10238000CDE906010490009003900E200990694663
:102390000F4800F039FA20B139220EA119A000F03F
:1023A0004BF90B4800F026FD20B13D2209A115A0F4
:1023B00000F042F90221064800F0A5F9002804D0F7
:1023C000412204A10FA000F037F90BB000BD0000BE
:1023D0005C0E00202E2E5C43616E4F70656E5C5368
:1023E00072635C63616E466573746976616C5F638A
:1023F000616E5F53544D33325F4672656552544F80
:10240000532E63005B4552524F525D2046696C6506
:102410003A202573204C696E653A202564200D0A08
:102420000000000030B4D0F89C20D0F8A0404FF05D
:10243000FF3352F8212024F81130C2F30742012162
:10244000831883F8B010D0F8AC3030BC1146184770
:102450002DE9F04F9946DDE90A5A4FF0FF3BDDF8D0
:1024600024C041E0AB1A5BB20C78002B03DD00BF47
:1024700004FA03F403E0C3F1000324FA03F4E6B220
:1024800002DDC5F1080301E0C2F10803DCB28442B9
:1024900000D9044605EB0408FF2707FA08F3C5F145
:1024A0000805EF403B439CF800509E431D403543D8
:1024B0002244D2B28CF80050072A07D90022B9F181
:1024C000000F01D05B4600E00123194408F0FF052E
:1024D000072D07D90025BAF1000F01D05B4600E0B7
:1024E00001239C44001BC0B20028BBD1BDE8F08F83
:1024F000014800F011BD00000C120020014800F05E
:102500000BBD0000AC110020014800F005BD00002B
:102510004C110020014800F0FFBC00008C1300208B
:10252000014800F0F9BC0000EC130020014800F065
:10253000F3BC00006C120020014800F0EDBC00006C
:102540004C140020014800F0E7BC0000CC12002031
:10255000014800F0E1BC0000AC140020014800F08C
:10256000DBBC00002C13002001681823CAB2103A0B
:10257000B2FBF3F2054B6FF30901032A9B5CC365C1
:1025800000D9091D8165084670470000D8DC0008A5
:1025900010B5014600208B698A6A4FF0C07453B1B0
:1025A000B3F5005F15D072B1012A0CD0022A0AD00F
:1025B000032A09D104E01AB1012A06D0022A03D164
:1025C000C96AC90100D5012010BDC96AA142FAD06B
:1025D00010BD002AF7D0012AF2D0022AF3D0032A34
:1025E000F3D010BD30B50468256825F4802525603A
:1025F000046863608368402B036803D099600068B7
:10260000C26030BD9A600068C16030BD7047000094
:1026100030B40022134603E0C45C202C07D05B1CBE
:102620008B42F9DB014630BC0248FEF717B95B1E4E
:10263000DAB2F7E73A6600200FB410B503AA0A48E9
:102640000299FDF75FFF094C4FF0FF31206807F05A
:1026500049F8054906A0FDF767FF206807F09FF8D5
:1026600010BC5DF814FB00007864002050000020CE
:1026700025730000411C0CD00749B1F9002090429D
:1026800001D1521E0A80054A00EB4000002102F8E9
:1026900030104FF0FF3070472C0A0020B863002044
:1026A00072B6FEE770B50546D0F83801008818B359
:1026B00000242E1996F8B0000F2818D0286800784A
:1026C000A04214D096F8400140B9D5F8342112B197
:1026D000214628469047012086F8B00096F8400130
:1026E0002146401E86F84001284606F0D4FE641CB0
:1026F000E4B2802CDDD370BDB5F93001FFF7BAFF2D
:10270000A5F8300170BD90F82020012A07D0022AD8
:1027100005D0416A41F48021416201207047006880
:1027200042690A43426100207047F0B590F820509A
:102730000468A468012D05D0022D03D0416A41F43C
:1027400080215DE014F0406F01D1E50055D5C4F360
:102750000164022C03D9416A41F4000150E00125D3
:10276000A5401D608D684FF4C0739DB1CE683543A0
:102770004E6845EAC605066803EB0417F5514FF4A9
:10278000C275076805EB04150E697E51097D0129A4
:1027900005D009E00E88CD6845EA4655EBE70168AB
:1027A0004E5946F480764E511179D579567941EAE1
:1027B000056195792D0445EA062529434FF4C6762F
:1027C000056806EB0416A9511178D57841EA056130
:1027D000957852782D0445EA022211434FF4C475CE
:1027E000026805EB04155151006803EB04114258CF
:1027F00042F0010242500020F0BD416A41F4001154
:1028000041620120F0BD000010B590F82020012A9F
:1028100007D0022A05D0416A41F48021416201209B
:1028200010BD3B48D0F8002242F00102C0F800225F
:10283000D0F8002222F47C52C0F80022D0F8002206
:102840004B6A42EA0322C0F800220A7D02F01F030D
:1028500001229A40D0F81C329343C0F81C32CB6955
:10286000B3B9D0F80C329343C0F80C328C894B6862
:1028700064F31F434C6900EBC404C4F840320C8974
:102880000B6864F31F434C6900EBC404C4F8443282
:10289000CB69012B16D1D0F80C321343C0F80C329F
:1028A0000C884B6864F31F434C6900EBC404C4F804
:1028B00040320C89CB6864F31F434C6900EBC404BD
:1028C000C4F844328B69002BD0F804320ED0134385
:1028D000C0F804320B69002BD0F8143208D013432F
:1028E000C0F81432096A012904D008E09343EFE7E5
:1028F0009343F5E7D0F81C121143C0F81C12D0F82E
:10290000001221F00101C0F80012002010BD0000EB
:1029100000640040704730B590F82040012C05D08D
:10292000022C03D0416A41F480215DE00468002953
:1029300055D02469A40754D04FF4D874056804EB2B
:1029400001142D5915F00405956005682D594ED0D8
:10295000ED08556005682C5904F00204D4604FF46A
:10296000DA74056804EB01142D5905F00F051561A3
:1029700005682D59C5F30725956105682C59240C68
:1029800054614FF4DC72046802EB0112A4581C700D
:102990000468A458240A5C700468A458240C9C7031
:1029A0000468A258120EDA704FF4DE72046802EB6B
:1029B0000112A4581C710468A458240A5C710468AC
:1029C000A458240C9C710468A258120EDA71006895
:1029D00081B1016941F020010161002030BDE4684E
:1029E000A8E7416A41F400114162012030BD6D0D3C
:1029F0001560AFE7C16841F02001C160EDE72DE946
:102A0000F05F0546006800244669D0F804908768A6
:102A1000D0F80CB0D0F810A0D0F81880F10748D04A
:102A2000F90714D001218160B80703D5284600F0CA
:102A30000EFA0CE0780702D54FF4006407E038077F
:102A400002D54FF4805402E0284600F0FFF9F80563
:102A500016D529684FF480708860B80503D52846DC
:102A600000F0F7F90CE0780502D544F4005407E0D3
:102A7000380502D544F4804402E0284600F0E8F925
:102A8000F80316D529684FF480308860B80303D561
:102A9000284600F0E0F90CE0780302D544F4004445
:102AA00007E0380302D544F4803402E0284600F001
:102AB000D1F9300707D55FEACB6004D5296810202B
:102AC00044F40074C86070074FF0080707D55FEA48
:102AD0000B7004D52868C760284600F057F9B00786
:102AE00006D52868C068800702D0284600F050F953
:102AF000700607D55FEACA6004D52968102044F43F
:102B000080640861B00607D55FEA0A7004D52868BA
:102B10000761284600F06AF9F00606D528680069C2
:102B2000800702D0284600F062F9B00308D55FEABA
:102B3000C96005D5296810204860284600F058F97A
:102B4000F00307D55FEA097004D528684760284676
:102B500000F082F9300446D55FEA497040D5F005AF
:102B600004D55FEAC87001D044F00104B00504D573
:102B70005FEA887001D544F00204700504D55FEA6D
:102B8000487001D544F00404300529D518F0700FC1
:102B900026D008F07000402815D006DC102809D097
:102BA00020280AD0302816D10AE050280ED06028FC
:102BB00011D10EE044F008040DE044F010040AE0E6
:102BC00044F0200407E044F0400404E044F08004B2
:102BD00001E044F480742868816921F0700181610A
:102BE000296804204860002C05D0686A2043686288
:102BF0002846FFF78FFEBDE8F09F70B5040003D0B4
:102C000094F8200010B104E0012070BD204600F0CF
:102C100081F82068016841F00101016000F0F4FBD7
:102C20000546052604E000F0EFFB401B0A2811D8FA
:102C300020684068C007F6D02068016821F00201D2
:102C4000016000F0E1FB05460BE000F0DDFB401BFE
:102C50000A2806D9606A40F40030606284F8206077
:102C6000D2E7206840688007EFD4207E01282068E2
:102C700001683DD021F080010160607E012820685C
:102C8000016838D021F040010160A07E0128206851
:102C9000016833D021F020010160E07E0128206826
:102CA00001682ED041F010010160207F01282068CA
:102CB000016829D021F008010160607F01282068A7
:102CC000016824D021F004010160D4E90201084325
:102CD000D4E90412114308436168491E084321687E
:102CE000C86100206062012084F82000002070BDCF
:102CF00041F08001C0E741F04001C5E741F020010B
:102D0000CAE721F01001CFE741F00801D4E741F014
:102D10000401D9E710B586B0044614216846FDF7D2
:102D200076FD17492068884227D11648016841F08E
:102D300000710160006800F00070059011481038C3
:102D4000016841F0080101600068022100F00800FC
:102D500005900320CDE900010121CDE902100920F1
:102D600004906946084800F049FA00220521142021
:102D700000F046FE142000F035FE06B010BD000045
:102D80000064004040380240000C024070470000E0
:102D900010B5124A016891421FD1114B114A00210E
:102DA000FFF7B9FD0F4901F11C000A8820F8032B39
:102DB0000A6900F80129097B00F8021B0849FDF7A0
:102DC000D9FC08481C3006F007F907480549006897
:102DD000BDE810401C3106F07DB810BD0064004015
:102DE0000403002020630020140300207047704774
:102DF0007047000070B5044690F82000012804D008
:102E0000606A40F40020606218E0022084F820002C
:102E10002068016821F00101016000F0F5FA054623
:102E20000EE000BF00F0F0FA401B0A2808D9606AE3
:102E300040F400306062052084F82000012070BD5D
:102E400020684068C007EDD1606270BD7047704770
:102E5000704770477047704770472DE9F04104464E
:102E6000876D00F0D1FA064694F835000025022857
:102E700006D08020606584F834500120BDE8F081E0
:102E80002068016821F0160101602068416921F085
:102E900080014161206C08B9A06C20B120680168F4
:102EA00021F0080101602068016821F00101016042
:102EB0000CE000F0A9FA801B052807D920206065E6
:102EC000032084F8350084F83450D7E72068006880
:102ED000C007EED194F85C103F208840B860012014
:102EE00084F8350084F834500020C7E790F8351096
:102EF000022903D08021416501207047052180F817
:102F000035100068016821F0010101600020704760
:102F100090F83500704700002DE9F84304464FF063
:102F20000009CDF8009063484FF41651A56D006874
:102F3000B0FBF1F72E6894F85C10082000FA01F15C
:102F400031420FD021680A6852070BD50A6822F077
:102F500004020A6094F85C108840A860606D40F03C
:102F60000100606594F85C104FF0010808FA01F068
:102F7000304208D021684969090604D5A860606D0F
:102F800040F00200606594F85C10042088403042F4
:102F900008D021680968890704D5A860606D40F0F1
:102FA0000400606594F85C1010208840304218D00E
:102FB00021680968090714D5A860206801684903D9
:102FC00004D50068000308D5A16C07E00168C905B5
:102FD00003D4016821F008010160216C09B1204689
:102FE000884794F85C1020208840304231D0216816
:102FF0000968C9062DD5A86094F835000528206811
:10300000016806D0490347D5006800031DD4616CF0
:103010001CE021F0160101602068416921F0800167
:103020004161206C08B9A06C20B12068016821F0D2
:103030000801016094F85C103F208840A86084F883
:10304000358084F83490216D1FE0E16B09B1204692
:103050008847606D00282BD0606DC00714D0052014
:1030600084F835002068016821F0010101600098B2
:10307000401C0090B84203D820680068C007F6D111
:1030800084F8358084F83490E16C002910D001B0C8
:103090002046BDE8F04308470168C905D5D401685A
:1030A00021F01001016084F8358084F83490CCE779
:1030B000BDE8F883680000202DE9F041044600F0E7
:1030C000A3F906465CB1022084F83500002584F897
:1030D00034502068016821F0010101600DE00120F9
:1030E000BDE8F08100F090F9801B052805D920206B
:1030F0006065032084F83500F2E720680068C007A7
:10310000F0D12268116820480140D4E90103184336
:10311000D4E903363343184363691843A36918435A
:10312000E3691843236A18430843616A042903D1F9
:10313000D4E90B1319430843106020684069666A9C
:1031400020F0070130460E43012704280CD1A06A65
:103150000643E06A40B12046FFF71AFA20B140204A
:10316000606584F83570BAE7206846612046FFF74D
:10317000FBF994F85C203F2191408160656584F8FB
:1031800035700020ACE700003F8010F02DE9F041E1
:103190000446866D90F83400002501280DD00120EA
:1031A00084F8340094F835700020012F07D084F89B
:1031B000340002252846BDE8F0810220FBE7022703
:1031C00084F8357060652046FFF70CFA94F85C10BF
:1031D0003F208840B0602068016841F0160101601E
:1031E000206C20B12068016841F00801016020686E
:1031F000016841F001010160DCE700002DE9F84FB2
:10320000DFF8BCA10022012503264FF00F090AF1C7
:10321000040BAAF1040E00BF0B6805FA02F4234068
:10322000A34270D10F7907F00307012F01D0022FBD
:1032300016D187684FEA420806FA08FC27EA0C070D
:10324000D1F80CC00CFA08FC4CEA070CC0F808C016
:103250004768A7430C79C4F3001494403C4344608E
:103260000C79E443A4070AD0C4684FEA420C06FA7A
:103270000CF7BC438F6807FA0CF72743C7600C793B
:1032800004F00304022C12D1D40800EB840CDCF807
:1032900020405707FF0E09FA07F824EA0804D1F87E
:1032A000108008FA07F848EA0408CCF8208004687F
:1032B0004FEA420C06FA0CF7BC430F7907F00307FC
:1032C00007FA0CF7274307604C6814F4403F70D0AE
:1032D0003C4C276847F480472760246822F00307A6
:1032E00004F480440094384C07EB040CDCF80848E4
:1032F00097074FEA177809FA08F7BC43334FB842EB
:1033000002D1002724E054E0314FB84201D1012717
:103310001EE0304FB84201D1022719E02E4FB842CB
:1033200001D1032714E02D4FB84201D104270FE04B
:103330002B4FB84201D105270AE02A4FB84201D1EC
:10334000062705E0284FB84201D1072700E00827EB
:1033500007FA08F72743CCF80878DAF80040574610
:10336000D1F804C09C435FEACC2C00D51C433C60E0
:10337000DBF800405F46D1F804C09C435FEA8C2C28
:1033800000D51C433C60DEF800407746D1F804C00D
:103390009C435FEA8C3C00D51C433C60084F083FCF
:1033A0003C68D1F804C09C435FEACC3C00D51C4388
:1033B0003C60521C102AFFF42FAFBDE8F88F0000CC
:1033C000083C014044380240003001400000024007
:1033D0000004024000080240000C024000100240BD
:1033E0000014024000180240001C0240426921EA19
:1033F00002030A4043EA0241816170470AB18161D8
:1034000070470904FBE7000001488068704700002E
:103410005C000020704770472DE9F04101680446C8
:103420004A694E6890F83E000025D743FA0506D455
:10343000F243D20503D46FF4807201254A61B905C5
:1034400008D4F143C90505D422686FF4007145F032
:1034500002055161790525D4F143C90522D4638D54
:1034600094F83D10226B202808D13BB9212910D0B7
:1034700029290ED0282901D1212A0AD022686FF4E7
:103480008061516145F00405102806D0402804D021
:1034900008E0204602F0D4F904E02068016841F415
:1034A00000710160380508D4F043C00505D42168D7
:1034B0006FF4006045F008054861002D07D0206CCE
:1034C000284320642046BDE8F04101F04BBEBDE832
:1034D000F0812DE9F047026800215368C66A90F830
:1034E0003E4090F83D50102C12D0402C10D0046C6F
:1034F000002C7DD05469E443A6077AD4DE43B60598
:1035000077D4036C03B19169BDE8F04702F074B958
:10351000976951694FF42A0CC9435FEAC1784FF0AB
:103520002A4904D066452AD04E4528D010E0DE4313
:10353000B6050DD4C16A614501D1012103E0C16A1C
:10354000494501D10821C162BDE8F04702F0BEB88B
:103550000E0716D4DE43B60513D4416CC9B211610F
:10356000416B09B1C96B29B9816B002907D0C96BBF
:10357000002904D00068416841F400614160BDE861
:10358000F0878E0706D4DE43B60503D4BDE8F047C6
:1035900002F010B8FE43526876074FEA02521DD47B
:1035A000002AECDB0A0608D4DA43520505D44907A1
:1035B00005D5BDE8F04701F0A1BF4907DFD4D943E5
:1035C0008905DCD4212D05D0402CD8D1BDE8F047A9
:1035D00002F0C2B8BDE8F04701F04EBF002ACEDBD2
:1035E0004A060BD4DA43520508D4490708D501E04E
:1035F0000DE00EE0BDE8F04701F0CABE4907BED4B9
:10360000D9438905BBD4BDE8F04701F057BE9169A5
:1036100070E7E10606D4D943890503D4BDE8F04735
:1036200002F050B92821212D27D0292D25D065065B
:1036300055D4DD436D0552D4640752D590F83D3022
:10364000448D002C9BD01269446A2270426A521C3D
:103650004262428D521E4285428D002A8FD12A2B12
:103660008DD10268536823F4806353602222026381
:1036700080F83D1000F056F981E7250623D4DD439C
:103680006D0520D4640720D590F83D30448D002C82
:10369000F2D0446A24781461426A521C4262428D1C
:1036A000521E4285428D002AE6D1292BE4D10268C0
:1036B000536823F4806353602122026380F83D1035
:1036C00000F031F95BE76107D6D4D9438905D3D43B
:1036D000418D0029D0D0416A097811610AE0610763
:1036E000CAD4D9438905C7D4418D0029C4D01169F2
:1036F000426A1170416A491C4162418D491E4185EF
:103700003DE7704770B5040025D094F83D000025D2
:1037100020B984F83C50204600F0BEF8242084F8FC
:103720003D002068016821F0010101602068016806
:1037300041F4004101602068016821F4004101600A
:1037400000F02AFA4D4A6168914201D84C4900E0E4
:103750004C49884201D2012070BD4B492368B0FB1F
:10376000F1F15E6826F03F060E435E6063689342A7
:1037700006D94FF4967359434FF47A73B1FBF3F1C2
:103780002368491C1E6A26F03F06314319626168AE
:10379000914210D84900401EB0FBF1F2521CC2F316
:1037A0000B02042A01D2042022E0B0FBF1F0401CFD
:1037B000C0F30B001CE0A268F2B301EBC10303EB02
:1037C0000116431EB3FBF6F35B1C43F480431B0559
:1037D00049D092B301EBC10202EB0111401EB0FBD4
:1037E000F1F0401CC0F30B0040F4804040F4004076
:1037F0002168CA694CF6FF739A431043C861D4E943
:10380000071001432068026822F0C00211430160E2
:10381000D4E9030101432068826848F2FF339A43E8
:1038200011438160D4E9050108432168CA6822F088
:10383000FF021043C86001E00EE016E02068016856
:1038400041F0010101602564202084F83D002563DA
:1038500084F83E50002070BD01EB4106431EB3FBCF
:10386000F6F35B1CB3E70120C2E701EB4101401E08
:10387000B0FBF1F0401CC0F30B00B7E7A0860100DD
:1038800080841E0000093D0040420F0070477047D1
:10389000704770477047000010B586B00446142189
:1038A0006846FCF7B4FF1C492068884231D11B48A8
:1038B000016841F0020101600068694600F0020001
:1038C00005904FF44060009012200190012002907A
:1038D00003200390042004901148FFF78FFC0F4849
:1038E0001030016841F4800101600068002200F49A
:1038F000800005900521212000F082F8212000F0B1
:1039000071F800220521222000F07AF8222000F030
:1039100069F806B010BD0000005800403038024081
:1039200000040240704770470248816802781144E1
:10393000816070475C0000200B4810B5016841F4BD
:1039400000710160016841F480610160016841F427
:1039500080710160032000F073F80F2000F006F87A
:1039600000F024F8002010BD003C024070B50D4D61
:1039700004464FF47A712878B1FBF0F00A490968DF
:10398000B1FBF0F000F00EFB48B9102C07D200227A
:103990002146501E00F034F800206C6070BD0120FC
:1039A00070BD00005C000020680000200C4882B060
:1039B000016841F480410160006800F4804000909B
:1039C0000748001F016841F0805101600068002233
:1039D00000F0805000900F21901E02B000F010B84F
:1039E00044380240002809DB00F01F020121914009
:1039F0004009800000F1E020C0F80011704700008D
:103A0000F0B40E4B1B680C46C3F30223C3F1070549
:103A1000042D00D90425191D072901D2002300E037
:103A2000DB1E012606FA05F1491E214099409E4001
:103A3000761E16403143F0BC04F0D5BF0CED00E01B
:103A4000064900F0070208684FF6FF03184040EAF5
:103A50000220034A10430860704700000CED00E0AC
:103A60000000FA052DE9F0470E46050065D0DFF8A5
:103A70001481D8F80000F7B200F00700B04207D276
:103A800088F80070D8F8000000F00700B04254D168
:103A900028683D4C810712D5400703D5206840F4C3
:103AA000E05020602878000703D5206840F460408B
:103AB00020602068A96820F0F00008432060287882
:103AC000C0072DD0304968680839012812D0022873
:103AD00013D0032811D00968890700292DDA21683D
:103AE00021F0030101432160FFF78EFC814641F282
:103AF000883A0EE009688903EFE709688901ECE775
:103B0000FFF782FCA0EB0901514502D90320BDE873
:103B1000F0872068696800F00C00B0EB810FEFD1EE
:103B2000D8F80010404601F00701B14207D90770EC
:103B3000006800F00700B04201D00120E7E72878D4
:103B4000400705D52068E96820F4E050084320606C
:103B50002878000706D52068296920F4604040EAEB
:103B6000C100206000F038F82168084AC1F3031151
:103B7000515CC8400649086006480068FFF7F6FE39
:103B80000020C4E7003C024008380240E0DC0008A6
:103B900068000020600000200448054900680968AA
:103BA000044AC1F38221515CC8407047680000207C
:103BB00008380240F0DC000804480549006809683C
:103BC000044AC1F34231515CC8407047680000208C
:103BD00008380240F0DC0008154810B5006810F005
:103BE0000C02144813D04110042A0FD0082A0ED119
:103BF0000F4C241F2268236802F03F025B0207D5A6
:103C00002068C0F38810A0FB010106E0084610BD43
:103C10002168C1F38811A1FB00010023FCF7FBFB25
:103C20002168C1F30141491C4900B0FBF1F010BD0E
:103C3000083802400024F4002DE9F84F04006ED04B
:103C40002078DFF84C93C007A9F104054AD009F1A8
:103C500004000168C1F38101012908D00068C0F3A4
:103C6000810002280AD1D9F80000400206D5286850
:103C7000800337D560680028E1D033E06068B0F594
:103C8000803F10D0B0F5A02F286810D020F48030ED
:103C90002860286820F4802028606068A8B1FFF7B9
:103CA000B3FB06460DE0286840F48030F4E740F4AA
:103CB00080202860F7E700BFFFF7A6FB801B642881
:103CC00073D828688003F7D50CE0FFF79DFB064604
:103CD00005E000BFFFF798FB801B6428F0D8286838
:103CE0008003F7D42078DFF8AC8280074FF0000A19
:103CF0003ED5A748001D016811F00C0F08D00068E0
:103D0000C0F3810002280BD1D9F80000400207D48B
:103D10002868800716D5E068012800D112E033E159
:103D2000E068B8B10120C8F80000FFF76DFB064657
:103D300005E000BFFFF768FB801B0228C0D8286899
:103D40008007F7D52868216920F0F80040EAC10013
:103D500028600DE0C8F800A0FFF756FB064604E017
:103D6000FFF752FB801B02281FD828688007F7D472
:103D70002078000722D5864F87486169703771B176
:103D800001210160FFF740FB064604E0FFF73CFB22
:103D9000801B022809D838688007F7D50EE0C0F8E4
:103DA00000A0FFF731FB064605E082E0FFF72CFBA1
:103DB000801B02287DD838688007F7D42078400718
:103DC00068D5DFF8CCB100270BF13C0BDBF8000025
:103DD000C0000BD4DBF8001041F08051CBF800108C
:103DE000DBF80000012700F0805000906B4E306837
:103DF000C00510D4306840F480703060FFF704FBD9
:103E0000009005E0FFF700FB0099401A022850D807
:103E10003068C005F6D55E4EA0686C3601280FD01C
:103E20000528306810D020F001003060306820F0A4
:103E300004003060A068B8B1FFF7E6FA00900FE028
:103E4000306840F00100F4E740F004003060F7E72C
:103E5000FFF7DAFA0099411A41F28830814266D8B8
:103E600030688007F4D50EE0FFF7CEFA009007E047
:103E7000FFF7CAFA0099411A41F28830814256D8B8
:103E800030688007F4D42FB1DBF8001021F08051A6
:103E9000CBF80010A069C8B33D49091D0968C1F3FA
:103EA000810102294AD00228504607D0C8F8600094
:103EB00000E03CE0FFF7A8FA04463BE04746C8F8BC
:103EC0006000FFF7A1FA064605E000BFFFF79CFA85
:103ED000801B02282BD828688001F7D4D4E9070179
:103EE0000843A16A2E4A490802EB0141626A41EA8D
:103EF0008211084394F82C1040EA0161C9F80010BF
:103F000001203866FFF780FA044606E03EE000BF75
:103F1000FFF77AFA001B022809D828688001F7D534
:103F200034E000BFFFF770FA001B022802D903201B
:103F3000BDE8F88F28688001F4D427E00128F7D085
:103F4000D9F80000E26900F4800191421CD1226A94
:103F500000F03F01914217D147F6C071626A0140FB
:103F6000B1EB821F10D1A26A4FF0FF3300F4403151
:103F700003EB5202B1EB024F06D194F82C1000F083
:103F80007060B0EB016F01D00120D1E70020CFE7D6
:103F90000438024000004742800E47420070004053
:103FA0000000FFFF10B5401EB0F1807F01D301205B
:103FB00010BD4FF0E02460610F21601704F013FD85
:103FC0000020A06107202061002010BD70477047CD
:103FD00070B590F83C20012A32D0012480F83C4092
:103FE000022280F83D2003685A689D6822F070061E
:103FF0000A6832435A60134B02689A4214D0B2F1F5
:10400000804F11D0104B9A420ED0104B9A420BD0D9
:104010000F4B9A4208D00F4B9A4205D00E4B9A4252
:1040200002D00E4B9A4204D1496825F0800319430F
:10403000916080F83D40002180F83C10084670BD3A
:10404000022070BD00000140000400400008004054
:10405000000C0040000401400040014000180040F6
:1040600010B5040003D094F83D0010B107E0012022
:1040700010BD002084F83C00204600F01FF802200C
:1040800084F83D00211D206803F0FAFF012084F828
:10409000460084F83E0084F83F0084F8400084F82D
:1040A000410084F8420084F8430084F8440084F816
:1040B000450084F83D00002010BD000008B50168EF
:1040C0001D48B1F1804F11D01C4A91421DD10168A9
:1040D00041F0020101600068002200F0020000903F
:1040E00005211D20FFF78CFC1D201FE0016841F019
:1040F000010101600068002200F00100009005212C
:104100001C20FFF77DFC1C2010E00D4A914211D1CC
:10411000016841F0080101600068002200F0080019
:10412000009005213220FFF76BFC3220BDE80840EB
:10413000FFF758BC08BD00004038024000040040B2
:10414000000C004090F83D10012901D0012070477B
:10415000022180F83D100168CA6842F00102CA607D
:1041600000681149884214D0B0F1804F11D00F4936
:1041700088420ED00E4988420BD00E49884208D0A2
:104180000D49884205D00D49884202D00C49884229
:1041900004D1816801F00701062903D0016841F0CC
:1041A0000101016000207047000001400004004050
:1041B00000080040000C00400004014000400140A5
:1041C0000018004070B5044690F83C000025012816
:1041D00017D0012684F83C60022084F83D00206856
:1041E000826822F0770222F47F42826008685028B9
:1041F00038D00DDC20284FD005DC90B3102811D129
:104200004AE0022070BD302846D040280AD13BE069
:1042100060282FD070280DD0B0F5805F03D0B0F5A6
:10422000005F12D0012584F83D60002084F83C0036
:10423000284670BDCB68D1E90121206803F091FFC9
:104240002068816841F0770109E0CB68D1E901215C
:10425000206803F086FF2068816841F48041816016
:10426000E1E719E0CA684968206804F04FF8502176
:10427000206806E0CA684968206804F058F86021A0
:10428000206803F078FFCEE7CA684968206804F028
:104290003DF840212068F4E7226801461046F0E727
:1042A0000649884208D106490A88521C0A800068DB
:1042B000406A486004F080B870470000680F002032
:1042C0000C03002030B50446002551B104290DD05F
:1042D000082910D094F8410094F84520012811D104
:1042E0000EE094F83E0094F84220F7E794F83F007F
:1042F00094F84320F2E794F8400094F84420EDE766
:10430000012A01D0012030BD022059B1042912D068
:10431000082919D084F8410084F845000C2944D0BC
:10432000012540E084F83E0084F842002068C2681D
:1043300042F0020210E084F83F0084F84300206855
:10434000C26842F0040207E084F8400084F84400A8
:104350002068C26842F00802C2600122206803F0AF
:10436000F3FE14492068884214D0B0F1804F11D078
:10437000114988420ED0114988420BD01049884219
:1043800008D01049884205D00F49884202D00F4911
:10439000884204D1816801F00701062903D0016831
:1043A00041F001010160284630BD2068C26842F03A
:1043B0001002D1E700000140000400400008004066
:1043C000000C004000040140004001400018004083
:1043D00070B50446006801694FF00005C9438907BC
:1043E00015D4C168C943890711D4E91E01610120B0
:1043F0002077206880698007204602D0FFF750FFB1
:1044000004E000F0FCF8204600F0DAF92577206897
:104410000169C943490717D4C168C943490713D47F
:104420006FF004010161022020772068806910F498
:10443000407F204602D0FFF733FF04E000F0DFF8B2
:10444000204600F0BDF9257720680169C9430907B6
:1044500016D4C168C943090712D46FF0080101617D
:10446000042020772068C0698007204602D0FFF72B
:1044700017FF04E000F0C3F8204600F0A1F925770B
:1044800020680169C943C90617D4C168C943C90670
:1044900013D46FF010010161082020772068C069F3
:1044A00010F4407F204602D0FFF7FAFE04E000F04F
:1044B000A6F8204600F084F9257720680169C943F1
:1044C000C90708D1C168C943C90704D1891E016160
:1044D000204600F077F920680169C943090609D42C
:1044E000C168C943090605D46FF080010161204607
:1044F000FFF76CFD20680169C943490609D4C1680A
:10450000C943490605D46FF040010161204600F01F
:104510008BF920680169C94389060BD4C168C94376
:10452000890607D46FF0200101612046BDE8704084
:10453000FFF74DBD70BD000070B586B00446142174
:104540006846FCF764F915492068884224D114486C
:104550000026016841F001010160016801F00101DC
:104560000591016841F0020101600068022400F039
:1045700002000590C02001258DE8710069460948B8
:104580000494FEF73BFECDE900540295CDE90364A7
:1045900069460548FEF732FE06B070BD00040040D3
:1045A00030380240000002400004024070B504466A
:1045B00090F83C00002501280FD0012084F83C0031
:1045C0006AB1042A0FD0082A11D00C2A13D0012571
:1045D000002084F83C00284670BD022070BD206891
:1045E00003F0D2FDF4E7206803F0FEFDF0E7206859
:1045F00003F030FEECE7206803F060FEE8E7704768
:1046000010B5040003D094F83D0010B107E001207C
:1046100010BD002084F83C00204600F01FF8022066
:1046200084F83D00211D206803F02AFD012084F854
:10463000460084F83E0084F83F0084F8400084F887
:10464000410084F8420084F8430084F8440084F870
:10465000450084F83D00002010BD000008B500684A
:104660000B49884212D10B48016841F004010160F6
:104670000068002200F00400009005211E20FFF7D2
:10468000BFF9BDE808401E20FFF7ACB908BD000027
:10469000000800404038024070B5044690F83C00E5
:1046A00000260D4601280FD0012084F83C006AB195
:1046B000042A1DD0082A2FD00C2A3FD00126002022
:1046C00084F83C00304670BD022070BD206803F0C5
:1046D0005BFD2068816941F0080181612068816982
:1046E00021F004018161206881692A69114311E088
:1046F000206803F079FD2068816941F400618161DF
:104700002068816921F480618161206881692A695A
:1047100041EA02218161D2E7206803F09BFD206815
:10472000C16941F00801C1612068C16921F004013B
:10473000C1612068C1692A69114311E0206803F052
:10474000BDFD2068C16941F40061C1612068C16993
:1047500021F48061C1612068C1692A6941EA0221AE
:10476000C161ACE710B5040003D094F83D0010B16E
:1047700007E0012010BD002084F83C00204600F036
:104780001EF8022084F83D00211D206803F078FC0B
:10479000012084F8460084F83E0084F83F0084F845
:1047A000400084F8410084F8420084F8430084F813
:1047B000440084F8450084F83D00002010BD704797
:1047C00070470000114908B5884203D110490A68B2
:1047D000521C0A600F49884217D10F480078002800
:1047E00013D002F07BFE0E4800236A460B49006896
:1047F00007F09EFF0098002807D00A494FF080502C
:104800000860BFF34F8FBFF36F8F08BDD80E002035
:1048100000000020B00F0020580E0020380E0020AD
:104820004C00002004ED00E07047704710B50446CE
:104830000068406994F83D10C0F3C010212911D1DF
:1048400080B12068143050E8001F21F0800140E85A
:104850000012002AF5D1606B08B1FEF7FEFA20467F
:1048600003F0FEFE2068406994F83E10C0F380100B
:10487000222911D180B12068143050E8001F21F0A6
:10488000400140E80012002AF5D1A06B08B1FEF704
:10489000E4FA204603F0BDFE002010BD7047000082
:1048A000F8B5016804460868CA684B6910F00F0F34
:1048B0004FF0000559D003F0010602F4907737431A
:1048C00065D0C10705D0D10503D5216C41F00101A8
:1048D0002164410705D5D90703D0216C41F00201BD
:1048E0002164810705D5D90703D0216C41F004016B
:1048F0002164010707D502F02001314303D0216C68
:1049000041F008012164216C00293AD0800604D5C9
:10491000900602D5204603F0B1FE20684069216C64
:10492000C0F38010090700D460B3204603F071FE85
:1049300020684069400621D52068143050E8001FE7
:1049400021F0400140E80012002AF5D1A06BA8B187
:104950006C490165A06BFEF7C9FA002811D0A06B65
:10496000016D01B0BDE8F040084783060FD59306FE
:104970000DD52046BDE8F84003F080BE2046FFF785
:104980008DFFF8BD2046FFF789FF2564F8BD266B33
:104990002023012E79D1C60677D5D60675D50868AD
:1049A000486800904869400640D5A16B0868406897
:1049B0000004000CEAD0A28D8242E7D9E085C869E4
:1049C000B0F5807F2DD020680C3050E8001F21F416
:1049D000807140E80012002AF5D12068143050E8B8
:1049E000001F21F0010140E80012002AF5D12068E3
:1049F000143050E8001F21F0400140E80012002A66
:104A0000F5D184F83E30256320680C3050E8001F53
:104A100021F0100140E80012002AF5D1A06BFEF74A
:104A20001CFAA08DE18D401A81B229E0A08DE18DA4
:104A3000401A81B2E08D0028A8D00029A6D02068B5
:104A40000C3050E8002F22F4907240E80026002E2F
:104A5000F5D12068143050E8002F22F0010240E820
:104A60000026002EF5D184F83E30256320680C30F6
:104A700050E8002F22F0100240E80023002BF5D16F
:104A80002046FFF7D2FEF8BDFFE705062BD5150639
:104A900029D594F83D002128F5D1A068B0F5805FB4
:104AA00001D12069B0B1206A411C216221680078DF
:104AB0004860E08C401E0004000CE084E3D12068D4
:104AC000C16821F08001C1602068C16841F04001E7
:104AD000C160D8E7206A0088C0F308004860206AF7
:104AE000801C2062E5E74006CDD55006CBD5CA68CC
:104AF000204622F04002CA6084F83D3000F0B4FA4B
:104B0000C1E700001D85000870B5040004D094F8CA
:104B10003D00002510B106E0012070BD84F83C5036
:104B2000204600F023F8242084F83D002068C16866
:104B300021F40051C160204603F000FE20680169A5
:104B400021F4904101612068416921F02A0141610D
:104B50002068C16841F40051C1602564202084F8B8
:104B60003D0084F83E00002070BD00002DE9F04FAC
:104B700087B0044614216846FBF749FEF348F24B20
:104B80001038D4F800C0DFF8C4E303270221012263
:104B9000002506154FF0080B4FF040094FF0006A52
:104BA0009C454DD1DEF800C04CF4002CCEF800C07E
:104BB000DEF8003003F400230593036843F001039B
:104BC00003600068CDE9007100F00100CDE904B098
:104BD000CDE902276946DE48FEF710FBDE4FDD48CF
:104BE000C7F80890C7E903567D61BD61FD613D626C
:104BF0007D62C7E9000A3846FEF75EFA08B1FDF7A4
:104C00004FFD6763BC63D44FD2486037303838609B
:104C1000C7E901A5C7E903567D61BD61FD613D623C
:104C200038467D62FEF748FA08B1FDF739FDA76303
:104C3000002205213420BC63FEF7E2FE342067E049
:104C4000C64B9C4569D1DEF800C04CF4801CCEF800
:104C500000C0DEF8003003F480130593036843F0CE
:104C600004030360036803F004030593036843F03F
:104C700008030360006802AA00F0080005904FF4E2
:104C80008050CDE90001012082E88108884669460C
:104C9000B348FEF7B3FA0420CDE9000802AA0120C8
:104CA00082E881086946AF48FEF7A8FAAA4FA948EA
:104CB000C03760383860C7E901A5C7E903567D6190
:104CC000BD61FD613D6238467D62FEF7F5F908B1D0
:104CD000FDF7E6FCA763BC63A34F9E48C7F80890A6
:104CE000C7E903567D61BD61FD613D6248307D626B
:104CF000C7E9000A3846FEF7DFF908B1FDF7D0FC36
:104D00006763002205213520BC63FEF779FE35205C
:104D1000FEF768FE07B0BDE8F08F8C4BDFF84C82E1
:104D20001B1DC4455DD1D3F800C0A8464CF0100C43
:104D3000C3F800C01B6803F010030593036843F039
:104D400001030360006800F0010005904FF4C060AB
:104D50008DE887000720049069467D48FEF74EFAEB
:104D6000DFF804B282490BF1600B5846CBF8001013
:104D7000C0E901A5C0E90356CBF81450CBF8185090
:104D8000CBF81C50CBF820505746CBF82450FEF7F8
:104D900093F908B1FDF784FC734D7548C4F838B039
:104DA000C0357830CBF8384085E88102C5E9038604
:104DB000C5F81480C5F81880C5F81C80C5F8208097
:104DC0002846C5F82480FEF777F908B1FDF768FC9E
:104DD0006563002205212520AC63FEF711FE252026
:104DE00096E7DFF89081C4455CD1DEF800C0AB46A1
:104DF0004CF4003CCEF800C0DEF8003003F4003381
:104E00000593036843F008030360006800F008009E
:104E1000059060208DE8870007200490694651487E
:104E2000FEF7ECF94B49DFF8508118314046C8F8DD
:104E30000010C0E901A5C0E90356C8F81450C8F82D
:104E40001850C8F81C50C8F820505746C8F82450CD
:104E5000FEF732F908B1FDF723FC474D3D48C4F891
:104E6000388060353030C8F8384085E88102C5E9BF
:104E700003B6C5F814B0C5F818B0C5F81CB0C5F82D
:104E800020B02846C5F824B0FEF716F908B1FDF7A2
:104E900007FC6563002205212620AC63FEF7B0FD08
:104EA000262035E7DFF8D480C4457FF433AFD3F84C
:104EB00000C04CF0200CC3F800C01B6803F02003B6
:104EC0000593036843F004030360006800F00400E6
:104ED0000590C0208DE8870869462148FEF78EF9C5
:104EE000254F2348C037183838604FF02068C7E98D
:104EF0000185C7E903567D61BD61FD613D623846AC
:104F00007D62FEF7D9F808B1FDF7CAFBA763BC6361
:104F10001B4F1748C7E903567D61BD61FD613D62C6
:104F200060307D6287E801033846FEF7C5F808B1B6
:104F3000FDF7B6FB6763002205214720BC63FEF73F
:104F40005FFD4720E4E60000004C0040403802408E
:104F500000000240706002404C11002000500040F0
:104F600000080240000C02406C12002000100140BA
:104F700040640240004400408C13002000140140B3
:104F8000AC14002090F83E30202B0ED159B152B114
:104F900090F83C30012B08D0012380F83C300023EE
:104FA000036303F051BC0120704702207047704733
:104FB000704700002DE9F843044690F83D001F4675
:104FC00016460D4620284CD1C5B1BEB194F83C0020
:104FD000012846D0012084F83C004FF00008C4F8B6
:104FE0004080212084F83D00FEF70EFAA684814619
:104FF000E684A068B0F5805F03D004E00120BDE83E
:10500000F883206928B12E465FF0000584F83C80C3
:105010000EE00026FAE78021204603F05FFCA0B9ED
:10502000AEB116F8010B21684860E08C401EE084A8
:10503000E08C4B464FF0000200970028EBD14FF078
:105040004001204603F04AFC30B10320D7E735F891
:10505000020BC0F30800E6E7202084F83D000020A2
:10506000CDE70220CBE70000074910B549680446A8
:1050700000680968884202D1002000F0D1FC20209D
:1050800084F83D0010BD0000500E0020FEE7000037
:105090000148FEF7C1B90000840E00200148FEF768
:1050A00018BA0000840E002038B5806B002190F8FB
:1050B0003D202B4B46F2A8141B68B3FBF4F3C3EB63
:1050C000C30303EB830300933BB15B1E00930368B0
:1050D0001B689B0505D5009BF6E7036C43F0200396
:1050E0000364436B03B1D963836B03B1D963036872
:1050F0001C6824F480641C604185436B03B119650E
:10510000836B03B1196503681C6824F001041C60FB
:1051100090F83D402023602C0BD0282434EA020272
:105120000FD080F83D3080F83E1000BFFEF7E9FA5E
:1051300038BD80F83D3080F83E100164FEF76AF912
:1051400038BD0268136843F00103136002681368F6
:1051500043F480631360016380F83D40E6E700009C
:105160006800002070B5044690F83D0094F83E10A9
:10517000102901D0402906D1222804D121680A68CB
:1051800022F400620A60282131EA00024FF0000593
:105190004FF0200626D021684968090505D460280B
:1051A00003D084F83D6084F83E5025632068416850
:1051B000090537D5416821F400614160606B90F8C2
:1051C00035203C49012A11D00165606BFDF78EFE48
:1051D00038B32068016821F00101016084F83D6066
:1051E000606B1CE0256384F83D10DFE7A06B016570
:1051F000A06BFDF77BFEA0B120684169C943490659
:1052000005D40069616A0870606A401C60622068A9
:10521000016821F00101016084F83D60A06B016D1F
:10522000884710E094F83D10602910D04169C943C7
:10523000490605D40069616A0870606A401C6062B2
:105240002046FEF75EFA206CC1071CD115E084F8F9
:105250003D6025644169C943490605D40069616A16
:105260000870606A401C60622068016821F00101DA
:1052700001602046FEF7CEF8E5E7810703D4410739
:1052800001D4000704D52068416821F4E061416041
:1052900094F83D00216C49070BD5282809D1064810
:1052A000E062256384F83D6084F83E502046FEF7B6
:1052B000EDFA70BDA95000080000FFFF10B5C26AEA
:1052C000438D0168042B06D0438D032B08D0438DFA
:1052D000022B1DD012E04A6822F480624A600CE082
:1052E0004B6823F480634B60042A06D0022A04D062
:1052F00001680A6822F480620A6001680969426AEA
:105300001170416A491C4162418D491E418510BDA1
:10531000012A30D0102A2ED0042A30D0022A2ED0D2
:105320000A6842F400720A6001680969426A1170F1
:10533000416A491C4162428D521E428502681269CF
:105340000A70416A491C4162418D491E41850168CC
:105350004A6822F440724A60202180F83D1090F89B
:105360003E200021402A80F83E100CD0122101631B
:10537000FEF78DFA10BD0A6822F48062D3E70A684E
:1053800042F48062CFE70163FEF783FA10BD0000AC
:1053900038B590F83D1022290FD1418D03290DD940
:1053A00001680969426A1170416A491C4162418D74
:1053B000491E4185418D032906D038BDC26A022AA3
:1053C00002D0012906D029B10068416821F480612A
:1053D000416038BD274946F2A81300220968B1FB95
:1053E000F3F101EB8101009101682023009C641E10
:1053F000009422D00C68A405F8D40C6824F48064CE
:105400000C6001684C6824F4E0644C600168096930
:10541000446A2170416A491C4162418D491E41859F
:1054200080F83D3090F83E1080F83E2040291DD095
:1054300012210163FEF72BFA38BD046C44F02004FE
:1054400004644C6824F4E0644C6001680969446AAF
:105450002170416A491C4162418D491E418580F895
:105460003D3080F83E20FEF74CF938BD0263FEF770
:1054700010FA38BD6800002010B5C26A90F83D10DF
:1054800021290BD1418D51B1416A0268097811611E
:10549000416A491C4162418D491E418510BD20234E
:1054A0000021082A13D0202A11D012F5803F0ED0F7
:1054B0000268546824F4E06454601122026380F8A6
:1054C0003E1080F83D3000BFFEF7E2F910BD0268E3
:1054D000546824F4E06454600268146844F400746E
:1054E0001460016380F83D3090F83E2080F83E1053
:1054F000402AE9D1FEF7CEF910BD000010B590F8B2
:105500003D1090F83E30C26A048DB4B1212903D019
:10551000402B11D122290FD1418DE1B390F83E10DB
:10552000402942D0416A026809781161416A491CE8
:105530004162418D491E418510BD2129E8D12023BA
:105540000021082A13D0202A11D012F5803F0ED056
:105550000268546824F4E06454601122026380F805
:105560003E1080F83D3000BFFEF792F910BD026892
:10557000546824F4E06454600268146844F40074CD
:105580001460016380F83D3090F83E2080F83E10B2
:10559000402AE9D100E002E0FEF77CF910BD006886
:1055A000416821F48061416010BDBDE8104000F009
:1055B000D3B8000078B590F83E50C26A036B90F8FB
:1055C0003D6000240168222E7AD1066D0EB9402D6F
:1055D00076D0056D1DB90569B5F5404F09D0458DEB
:1055E00005B3468D384D012E0ED0438D022B3AD097
:1055F0005DE04A698A6900920A6842F480720A6032
:10560000016D491C016578BDAA4213D10A6822F4D4
:1056100080620A6001684A68120503D50A6822F4AC
:10562000806216E04A698A6900920A6842F4007250
:105630000A6039E0082A10D0202A0ED0122B0AD096
:10564000042A03D0022A01D0102AE7D10A6842F4C2
:1056500080620A6024E0012AE0D00A6822F48062B5
:105660000A600168DEE7042A21D0022A1FD0102A2E
:105670001DD00B6823F480630B6001680B6843F452
:1056800000630B6001684B681B0509D5AA4212D064
:10569000012A10D0082A0ED0102A0CD0202A0AD0B5
:1056A00001684A6989690091046578BD08E00B6862
:1056B00043F48063E5E74A6842F480524A60EFE7CA
:1056C000486988690090F0E70000FFFF90F83E10FD
:1056D000402910D00169B1F5804F19D0016DA9B3EF
:1056E000016D012910D1416C5FF0F10201F44071AC
:1056F00042EAD11106E0016D0029416C05D0C9B222
:1057000041F0010100680161704701F0FE01F9E715
:1057100090F83D102129416C09D0C9B241F0010136
:1057200002681161416B29B1C96B49B902E001F00E
:10573000FE01F5E7816B0029E6D0C96B0029E3D0B3
:105740000068416841F4006141607047FFE7416CC7
:10575000F02201F44071CBE710B590F83D10026DD6
:1057600022B3026D012A2FD0026D022A1DD12229F7
:105770002FD0428D0AB1212933D0428D002A14D175
:10578000212912D101684A6822F4E0624A60016866
:105790000A6842F400720A6000210163202280F846
:1057A0003D2080F83E10FEF775F810BDC16C012950
:1057B000816C02D0C1F3072108E00268C9B211610F
:1057C000016D891C016510BD816CC9B2026811614F
:1057D00004E001680A6842F480720A60016D491CA5
:1057E000F0E7416A026809781161416A491C416227
:1057F000418D491E418510BD38B50C4690F83D20BD
:1058000000212825954302680B4605D0516991690E
:10581000009180F83C3038BD556825F480655560AE
:10582000E243540700D50121120601D5828900E028
:10583000028B80F83C3092B2FDF7EDFD38BD0000E0
:105840002DE9F04190F83D40C26A002320261C4F0C
:1058500001686FF48065082A01D0202A01D1282C24
:1058600004D0212C16D04D61BDE8F081C7624A6892
:1058700022F4E0624A6001684D6101680A6822F41E
:1058800080620A60036380F83D6080F83E30FDF777
:10589000FDFFE9E7C7622122026380F83D6080F8DE
:1058A0003E304A6822F4E0624A6001684D61016856
:1058B0000A6822F480620A60FEF735F8D4E7000037
:1058C0000000FFFFF8B590F83D60044600684168AD
:1058D00021F4E06141602068002541690091016880
:1058E00041F0010101602068016821F480610160DC
:1058F00020684168090520D5474F222E48D02A2E1E
:1059000046D0616B096849686185618D19B1216C68
:1059100041F004012164416821F400614160606B41
:10592000FDF7F6FA012808D0606B0765606BFDF79C
:10593000DDFA10B1606B016D8847608D08B3206897
:105940004169C943490708D40069616A0870606AFF
:10595000401C6062608D401E608520684169C943BB
:10596000490608D40069616A0870606A401C606278
:10597000608D401E6085608D18B1206C40F0040081
:105980002064206C00B32046BDE8F840FFF7EABB76
:10599000A16B096849686185618D19B1216C41F07D
:1059A00004012164416821F400614160A06BFDF7AE
:1059B000AFFA0128C1D0A06B0765A06BFDF796FA7E
:1059C0000028BAD0A06BB6E72A2E06D1256328207E
:1059D00084F83D002046FDF7A5FF94F83D102020F7
:1059E00028290DD0216B222901D0222E07D1256331
:1059F00084F83D0084F83E502046FDF793FFF8BD43
:105A00000649E162256384F83D0084F83E50204653
:105A1000FDF73CFFF8BD0000A95000080000FFFFA3
:105A2000044B08B1012200E0002202211846FDF7D4
:105A3000E5BC000000100240084B4FF480410028F4
:105A400002DD4FF0010202E004D14FF000021846DF
:105A5000FDF7D4BC1846FDF7C9BC00000010024099
:105A6000084B4FF40041002802DD4FF0010202E034
:105A700004D14FF000021846FDF7C0BC1846FDF7F0
:105A8000B5BC000000100240084B4FF40051002844
:105A900002DD4FF0010202E004D14FF0000218468F
:105AA000FDF7ACBC1846FDF7A1BC00000010024099
:105AB0000F4810B50D4901600721416000214FF4E6
:105AC00000228160C0E903125200426101764176F2
:105AD0008176C17601774177FDF78FF8002803D0F2
